:02000000CB290A
:0E000600213083120313FD00FD0B07280800B4
:100014000F3083120313FC004730FD00FD0B102842
:0A002400FC0B10280000000008008B
:06002E00000000000800C4
:1000340083160313CD1B21288312881323288312CC
:10004400881783164D1B2928831208132B28831223
:1000540008178316CD1A3128831288123328831285
:10006400881683164D1A3928831208123B288312E6
:1000740008166F183F280814402808108814172001
:1000840088108316CD194928831288134B288312AC
:10009400881783164D195128831208135328831285
:1000A40008178316CD185928831288125B288312E7
:1000B400881683164D186128831208126328831248
:1000C40008166F1867280814682808108814172061
:0E00D40088106F1C6F280A2070280320080077
:1000E2008316031398187728000071284D0883128D
:0400F2009900080069
:1000F600831203136F1083164A08CD001A206F145B
:020106000800EF
:0E010800831203136E088A006D08820008003F
:1001160083160313CC014A0884000008CB004B0861
:10012600003A0319A1284B08CD0071208316CC0A8A
:0E0136004C084A0784000008CB0092280800FD
:10014400831203131A08F100981CAA28181218160F
:060154007108F000080034
:10015A00BF28803083160313C600D228C030C600D9
:10016A00D2289430C600D228D430C600D228803093
:10017A00C600D228831603134608013A0319AE288B
:10018A004608023A0319B3284608033A0319B6285F
:10019A004608043A0319B928BC284703F000460860
:1001AA00F0077008C6007008CD001A206F10831679
:1001BA00C90149084807840000080319ED284908BD
:1001CA00480784000008CA007B208316C90ADE2873
:0601DA0083126F140800FF
:1001E000203083160313CA008B200B30FB0026300F
:1001F000FC005D30FD00FD0BFB28FC0BFB28FB0B1E
:10020000FB28000000004830CA008B200B30FB00A8
:100210002630FC005D30FD00FD0B0C29FC0B0C2989
:10022000FB0B0C29000000004608CA008B200B3095
:10023000FB002630FC005D30FD00FD0B1D29FC0B92
:100240001D29FB0B1D29000000001A30CD00712074
:100250000B30FB002630FC005D30FD00FD0B2E292D
:0E026000FC0B2E29FB0B2E29000000000800CD
:10026E0083160313C901A22070088316C8007008F4
:10027E000A3A0319542901304702F100F201031C16
:10028E00F2038030F000803072067002031D512997
:10029E00710849020318542955295C294908460753
:1002AE00840048088000C90A3A2949084607840094
:0402BE0080010800B3
:1002C2008316031388100810081288120813881363
:1002D20083128810081088130813881208120A2043
:1002E2000A200A20881608168814172088100A2067
:1002F2008814172088100A208814172088100A20D2
:1003020008128814172088100A20881417208810D1
:10031200881288178814172088100A208813081654
:1003220088141720881008128814172088100A20B1
:1003320088141720881008168814172088100A209D
:1003420008128814172088108817081788160816AC
:0C0352008814172088100A206F1408007F
:10035E0084208A110A128000840AED0A0319EE0A1B
:08036E00F003031DAF29080094
:1003760083160313981690308312980083168717F6
:10038600071383128C1ECA291A08F000C429080014
:10039600DC220630831603139F00FF30850086019A
:1003A60080308700880161210C308316CD001A2029
:1003B60001308316CD001A203330831699001815A4
:1003C600BB210230FB000430FC00BA30FD00FD0BFF
:1003D600EA29FC0BEA29FB0BEA2900008316061022
:1003E600831206100518202A8230FC00DD30FD003D
:1003F600FD0BFB29FC0BFB29000000000518202A39
:1004060010308316C6003230C70037213130C6009F
:10041600F02001308316CD001A2001308316C60065
:100426000130C7002B30C800AD2002308316C6004D
:100436000130C7005F30C800AD208518562A8230CB
:10044600FC00DD30FD00FD0B262AFC0B262A0000F1
:1004560000008518562A0614A8308316C600F02018
:1004660001308316CD001A2001308316C6000130F4
:10047600C700BB30C800AD2002308316C60001306D
:10048600C700A030C800AD203330FB00BB30FC00F5
:10049600DF30FD00FD0B4D2AFC0B4D2AFB0B4D2AD0
:1004A6000000000006100330FB000830FC00773027
:1004B600FD00FD0B5C2AFC0B5C2AFB0B5C2AF52974
:0204C600632AA7
:1005B800203084004D3083120313F0006930ED00C1
:1005C8000230EE00AF21A0308400263083120313DE
:0E05D800F000B630ED000230EE00AF2108005A
:1004D200413454342B3443344D34473446343D3460
:0604E20031340D3400343A
:0C04E80049346E347434653472340034CE
:1004F40049346E3474346534723466346534723419
:1005040065346E346334653420346434653474344F
:0E051400653463347434653464342134003447
:10052200413454342B3443344D34473453343D3402
:1005320022342B3431343234333434343534363497
:0E054200373438343934303422340D34003438
:1005500049344E34543445345234463445344134AD
:0C056000523441344E34433445340034EE
:10056C0043346C346F347334653464342034003465
:10057C004634753465346C342034763461346C34E0
:10058C0076346534203463346C346F3473346534AE
:06059C0064342134003438
:1005A2004634753465346C342034563461346C34DA
:0605B200763465340034CC
:02400E007A3BFB
:00000001FF
